{
  "_format": "hh-sol-artifact-1",
  "contractName": "ComplexStorage",
  "sourceName": "contracts/ComplexStorage.sol",
  "abi": [
    {
      "inputs": [],
      "stateMutability": "nonpayable",
      "type": "constructor"
    },
    {
      "inputs": [],
      "name": "constuint",
      "outputs": [
        {
          "internalType": "uint256",
          "name": "",
          "type": "uint256"
        }
      ],
      "stateMutability": "view",
      "type": "function"
    },
    {
      "inputs": [
        {
          "internalType": "uint256",
          "name": "",
          "type": "uint256"
        }
      ],
      "name": "deviceDataArray",
      "outputs": [
        {
          "internalType": "string",
          "name": "deviceBrand",
          "type": "string"
        },
        {
          "internalType": "string",
          "name": "deviceYear",
          "type": "string"
        },
        {
          "internalType": "string",
          "name": "batteryWearLevel",
          "type": "string"
        }
      ],
      "stateMutability": "view",
      "type": "function"
    },
    {
      "inputs": [],
      "name": "investmentsDeadlineTimeStamp",
      "outputs": [
        {
          "internalType": "uint32",
          "name": "",
          "type": "uint32"
        }
      ],
      "stateMutability": "view",
      "type": "function"
    },
    {
      "inputs": [],
      "name": "investmentsLimit",
      "outputs": [
        {
          "internalType": "uint128",
          "name": "",
          "type": "uint128"
        }
      ],
      "stateMutability": "view",
      "type": "function"
    },
    {
      "inputs": [],
      "name": "singleDD",
      "outputs": [
        {
          "internalType": "string",
          "name": "deviceBrand",
          "type": "string"
        },
        {
          "internalType": "string",
          "name": "deviceYear",
          "type": "string"
        },
        {
          "internalType": "string",
          "name": "batteryWearLevel",
          "type": "string"
        }
      ],
      "stateMutability": "view",
      "type": "function"
    },
    {
      "inputs": [],
      "name": "storeduint1",
      "outputs": [
        {
          "internalType": "uint256",
          "name": "",
          "type": "uint256"
        }
      ],
      "stateMutability": "view",
      "type": "function"
    },
    {
      "inputs": [],
      "name": "string1",
      "outputs": [
        {
          "internalType": "bytes16",
          "name": "",
          "type": "bytes16"
        }
      ],
      "stateMutability": "view",
      "type": "function"
    },
    {
      "inputs": [],
      "name": "string2",
      "outputs": [
        {
          "internalType": "bytes32",
          "name": "",
          "type": "bytes32"
        }
      ],
      "stateMutability": "view",
      "type": "function"
    },
    {
      "inputs": [],
      "name": "string3",
      "outputs": [
        {
          "internalType": "string",
          "name": "",
          "type": "string"
        }
      ],
      "stateMutability": "view",
      "type": "function"
    },
    {
      "inputs": [
        {
          "internalType": "uint256",
          "name": "",
          "type": "uint256"
        }
      ],
      "name": "uintarray",
      "outputs": [
        {
          "internalType": "uint256",
          "name": "",
          "type": "uint256"
        }
      ],
      "stateMutability": "view",
      "type": "function"
    }
  ],
  "bytecode": "0x6080604052600f60005561429f600160006101000a8154816fffffffffffffffffffffffffffffffff02191690836fffffffffffffffffffffffffffffffff16021790555042600160106101000a81548163ffffffff021916908363ffffffff1602179055507f7465737431000000000000000000000000000000000000000000000000000000600260006101000a8154816fffffffffffffffffffffffffffffffff021916908360801c02179055507f74657374313233360000000000000000000000000000000000000000000000006003556040518060400160405280601581526020017f6c65747320737472696e6720736f6d657468696e6700000000000000000000008152506004908051906020019062000120929190620007eb565b503480156200012e57600080fd5b50600073bccc714d56bc0da0fd33d96d2a87b680dd6d0df69050600073aee905fdd3ed851e48d22059575b9f4245a82b0490506058600560008473ffffffffffffffffffffffffffffffffffffffff1673ffffffffffffffffffffffffffffffffffffffff168152602001908152602001600020819055506063600560008373ffffffffffffffffffffffffffffffffffffffff1673ffffffffffffffffffffffffffffffffffffffff1681526020019081526020016000208190555060405180606001604052806040518060400160405280600b81526020017f6465766963654272616e6400000000000000000000000000000000000000000081525081526020016040518060400160405280600a81526020017f646576696365596561720000000000000000000000000000000000000000000081525081526020016040518060400160405280600981526020017f776561724c6576656c0000000000000000000000000000000000000000000000815250815250600660008473ffffffffffffffffffffffffffffffffffffffff1673ffffffffffffffffffffffffffffffffffffffff168152602001908152602001600020600082015181600001908051906020019062000302929190620007eb565b50602082015181600101908051906020019062000321929190620007eb565b50604082015181600201908051906020019062000340929190620007eb565b5090505060405180606001604052806040518060400160405280600c81526020017f6465766963654272616e6432000000000000000000000000000000000000000081525081526020016040518060400160405280600b81526020017f646576696365596561723200000000000000000000000000000000000000000081525081526020016040518060400160405280600a81526020017f776561724c6576656c3200000000000000000000000000000000000000000000815250815250600660008373ffffffffffffffffffffffffffffffffffffffff1673ffffffffffffffffffffffffffffffffffffffff16815260200190815260200160002060008201518160000190805190602001906200045b929190620007eb565b5060208201518160010190805190602001906200047a929190620007eb565b50604082015181600201908051906020019062000499929190620007eb565b5090505060405180606001604052806040518060400160405280600c81526020017f6465766963654272616e6433000000000000000000000000000000000000000081525081526020016040518060400160405280600b81526020017f646576696365596561723300000000000000000000000000000000000000000081525081526020016040518060400160405280600a81526020017f776561724c6576656c33000000000000000000000000000000000000000000008152508152506009600082015181600001908051906020019062000577929190620007eb565b50602082015181600101908051906020019062000596929190620007eb565b506040820151816002019080519060200190620005b5929190620007eb565b509050506007611f409080600181540180825580915050600190039060005260206000200160009091909190915055600761232890806001815401808255809150506001900390600052602060002001600090919091909150556008600660008473ffffffffffffffffffffffffffffffffffffffff1673ffffffffffffffffffffffffffffffffffffffff168152602001908152602001600020908060018154018082558091505060019003906000526020600020906003020160009091909190915060008201816000019080546001816001161561010002031660029004620006a292919062000872565b5060018201816001019080546001816001161561010002031660029004620006cc92919062000872565b5060028201816002019080546001816001161561010002031660029004620006f692919062000872565b5050506008600660008373ffffffffffffffffffffffffffffffffffffffff1673ffffffffffffffffffffffffffffffffffffffff1681526020019081526020016000209080600181540180825580915050600190039060005260206000209060030201600090919091909150600082018160000190805460018160011615610100020316600290046200078c92919062000872565b5060018201816001019080546001816001161561010002031660029004620007b692919062000872565b5060028201816002019080546001816001161561010002031660029004620007e092919062000872565b50505050506200091f565b828054600181600116156101000203166002900490600052602060002090601f016020900481019282601f106200082e57805160ff19168380011785556200085f565b828001600101855582156200085f579182015b828111156200085e57825182559160200191906001019062000841565b5b5090506200086e919062000900565b5090565b828054600181600116156101000203166002900490600052602060002090601f016020900481019282601f10620008ad5780548555620008ed565b82800160010185558215620008ed57600052602060002091601f016020900482015b82811115620008ec578254825591600101919060010190620008cf565b5b509050620008fc919062000900565b5090565b5b808211156200091b57600081600090555060010162000901565b5090565b610a51806200092f6000396000f3fe608060405234801561001057600080fd5b506004361061009e5760003560e01c8063927558601161006657806392755860146103fb57806397ba784f1461047e578063a7b2cfca1461049c578063df4fddf5146104cd578063eec65f29146104f15761009e565b80630ca0aa79146100a357806311f9c74d146100c157806328a20b5e146100df5780636c0c1bcf1461023a57806384eeda561461027c575b600080fd5b6100ab610521565b6040518082815260200191505060405180910390f35b6100c9610527565b6040518082815260200191505060405180910390f35b6100e761052d565b60405180806020018060200180602001848103845287818151815260200191508051906020019080838360005b8381101561012f578082015181840152602081019050610114565b50505050905090810190601f16801561015c5780820380516001836020036101000a031916815260200191505b50848103835286818151815260200191508051906020019080838360005b8381101561019557808201518184015260208101905061017a565b50505050905090810190601f1680156101c25780820380516001836020036101000a031916815260200191505b50848103825285818151815260200191508051906020019080838360005b838110156101fb5780820151818401526020810190506101e0565b50505050905090810190601f1680156102285780820380516001836020036101000a031916815260200191505b50965050505050505060405180910390f35b6102666004803603602081101561025057600080fd5b810190808035906020019092919050505061070d565b6040518082815260200191505060405180910390f35b6102a86004803603602081101561029257600080fd5b810190808035906020019092919050505061072e565b60405180806020018060200180602001848103845287818151815260200191508051906020019080838360005b838110156102f05780820151818401526020810190506102d5565b50505050905090810190601f16801561031d5780820380516001836020036101000a031916815260200191505b50848103835286818151815260200191508051906020019080838360005b8381101561035657808201518184015260208101905061033b565b50505050905090810190601f1680156103835780820380516001836020036101000a031916815260200191505b50848103825285818151815260200191508051906020019080838360005b838110156103bc5780820151818401526020810190506103a1565b50505050905090810190601f1680156103e95780820380516001836020036101000a031916815260200191505b50965050505050505060405180910390f35b61040361092d565b6040518080602001828103825283818151815260200191508051906020019080838360005b83811015610443578082015181840152602081019050610428565b50505050905090810190601f1680156104705780820380516001836020036101000a031916815260200191505b509250505060405180910390f35b6104866109cb565b6040518082815260200191505060405180910390f35b6104a46109d0565b60405180826fffffffffffffffffffffffffffffffff1916815260200191505060405180910390f35b6104d56109e3565b604051808263ffffffff16815260200191505060405180910390f35b6104f96109f9565b60405180826fffffffffffffffffffffffffffffffff16815260200191505060405180910390f35b60035481565b60005481565b6009806000018054600181600116156101000203166002900480601f0160208091040260200160405190810160405280929190818152602001828054600181600116156101000203166002900480156105c75780601f1061059c576101008083540402835291602001916105c7565b820191906000526020600020905b8154815290600101906020018083116105aa57829003601f168201915b505050505090806001018054600181600116156101000203166002900480601f0160208091040260200160405190810160405280929190818152602001828054600181600116156101000203166002900480156106655780601f1061063a57610100808354040283529160200191610665565b820191906000526020600020905b81548152906001019060200180831161064857829003601f168201915b505050505090806002018054600181600116156101000203166002900480601f0160208091040260200160405190810160405280929190818152602001828054600181600116156101000203166002900480156107035780601f106106d857610100808354040283529160200191610703565b820191906000526020600020905b8154815290600101906020018083116106e657829003601f168201915b5050505050905083565b6007818154811061071a57fe5b906000526020600020016000915090505481565b6008818154811061073b57fe5b9060005260206000209060030201600091509050806000018054600181600116156101000203166002900480601f0160208091040260200160405190810160405280929190818152602001828054600181600116156101000203166002900480156107e75780601f106107bc576101008083540402835291602001916107e7565b820191906000526020600020905b8154815290600101906020018083116107ca57829003601f168201915b505050505090806001018054600181600116156101000203166002900480601f0160208091040260200160405190810160405280929190818152602001828054600181600116156101000203166002900480156108855780601f1061085a57610100808354040283529160200191610885565b820191906000526020600020905b81548152906001019060200180831161086857829003601f168201915b505050505090806002018054600181600116156101000203166002900480601f0160208091040260200160405190810160405280929190818152602001828054600181600116156101000203166002900480156109235780601f106108f857610100808354040283529160200191610923565b820191906000526020600020905b81548152906001019060200180831161090657829003601f168201915b5050505050905083565b60048054600181600116156101000203166002900480601f0160208091040260200160405190810160405280929190818152602001828054600181600116156101000203166002900480156109c35780601f10610998576101008083540402835291602001916109c3565b820191906000526020600020905b8154815290600101906020018083116109a657829003601f168201915b505050505081565b601081565b600260009054906101000a900460801b81565b600160109054906101000a900463ffffffff1681565b600160009054906101000a90046fffffffffffffffffffffffffffffffff168156fea26469706673582212201a170fc9268ca1c2d01dee44006a2e90482fc8a11e5649d16369309abbc341b264736f6c634300060c0033",
  "linkReferences": {},
  "deployedLinkReferences": {}
}