{
  "_format": "hh-sol-artifact-1",
  "contractName": "SimpleStorage",
  "sourceName": "contracts/SimpleStorage.sol",
  "abi": [
    {
      "anonymous": false,
      "inputs": [
        {
          "indexed": false,
          "internalType": "string",
          "name": "_message",
          "type": "string"
        }
      ],
      "name": "StorageSet",
      "type": "event"
    },
    {
      "inputs": [
        {
          "internalType": "uint256",
          "name": "x",
          "type": "uint256"
        }
      ],
      "name": "set",
      "outputs": [],
      "stateMutability": "nonpayable",
      "type": "function"
    },
    {
      "inputs": [],
      "name": "storedData",
      "outputs": [
        {
          "internalType": "uint256",
          "name": "",
          "type": "uint256"
        }
      ],
      "stateMutability": "view",
      "type": "function"
    }
  ],
  "bytecode": "0x608060405234801561001057600080fd5b5061012c806100206000396000f3fe6080604052348015600f57600080fd5b506004361060325760003560e01c80632a1afcd914603757806360fe47b1146053575b600080fd5b603d607e565b6040518082815260200191505060405180910390f35b607c60048036036020811015606757600080fd5b81019080803590602001909291905050506084565b005b60005481565b806000819055507f60cdc157ca4737a5d39a0e107532616e7bf6946e615228812c7f9bc9f81797a66040518080602001828103825260198152602001807f446174612073746f726564207375636365737366756c6c79210000000000000081525060200191505060405180910390a15056fea26469706673582212208ef6c5d476db81759a69b06e8be0caa6b9dd1167ff8dfbfe6ea3f19a346cbaa864736f6c634300060c0033",
  "linkReferences": {},
  "deployedLinkReferences": {}
}